:107000005FC0000078C0000076C0000074C00000BF
:1070100072C0000070C000006EC000006CC00000B4
:107020006AC0000068C00000D4C4000064C0000052
:1070300062C0000060C000005EC000005CC00000D4
:107040005AC000009CC0000056C0000054C00000A0
:1070500052C0000050C000004EC000004CC00000F4
:107060004AC0000048C0000046C0000044C0000004
:1070700042C0000040C000003EC000003CC0000014
:107080003AC0000038C0000036C0000034C0000024
:1070900032C0000030C000002EC000002CC0000034
:1070A0002AC0000028C0000026C00000553E6E3EE9
:1070B000153F6E3E153FA63EC83E153FE83EFA3EE0
:1070C00011241FBECFEFDAE0DEBFCDBF11E0A0E09C
:1070D000B1E0E4EBFEE702C005900D92AA39B107DA
:1070E000D9F721E0AAE9B1E001C01D92A33BB207A4
:1070F000E1F71BD3DDC684CF84E08093E900809163
:10710000E80085FD0DC08091E8008B778093E80052
:107110008091E80082FDF3CF8EB38111F9CF02C0D8
:107120008091F100089593E09093E9009091E80038
:1071300095FF0AC08093F1005D9884E690E09093FB
:10714000A1018093A00108959091E8009E7790930B
:10715000E8009091E80090FDEDCF9EB39111F9CF3A
:107160000895F89410926F001092810081E085BF1D
:1071700015BE47985D9A289A0C94000008951F92B6
:107180000F920FB60F9211242F938F939F93EF932B
:10719000FF9310928500109284008091A00190913D
:1071A000A101009741F001979093A1018093A00164
:1071B000892B09F45D9A80919E0190919F0100971F
:1071C00041F0019790939F0180939E01892B09F4D0
:1071D000289A80919A0190919B01019690939B012E
:1071E00080939A01E0E0F0E085919491019649F056
:1071F00080919C0190919D01019690939D018093B7
:107200009C01FF91EF919F918F912F910F900FBE55
:107210000F901F90189542E061EC82E057D342E155
:1072200061E883E053D342E160E884E04FC380919A
:10723000AB01982F9F77913239F59091AC01903244
:1072400091F0913209F5813AF9F48091E800877F55
:107250008093E80067E070E082E091E068D480917C
:10726000E8008B770FC0813279F48091E800877F46
:107270008093E80067E070E082E091E0B5D480910F
:10728000E8008E778093E80008956F927F928F9246
:107290009F92AF92BF92CF92DF92EF92FF920F93A5
:1072A0001F93CF93DF9384E08093E9008091E800FF
:1072B00082FF2CC2289884E690E090939F018093EF
:1072C0009E011ADFC82F853481F48CEA9DE09093EB
:1072D0009D0180939C0107B600FCFDCFF999FECF7C
:1072E00081E180935700E89503C0843521F404DFE1
:1072F0008DE019DFE2C18C34D9F38035C9F38437CE
:1073000021F484E410DF80E0F4CF813611F489E5C4
:10731000F0CF813491F4F0DEC82FEEDE90E0880FDC
:10732000991F2C2F30E0322F2227330F822B932BE3
:10733000092E000CAA0BBB0B94C1803711F483E516
:10734000D8CF833549F4C1E9D1E01C2F195F899169
:10735000EADE1C13FCCFB1C1863521F481E3E3DE04
:1073600080E3C7CF833731F487E8DDDE85E9DBDEF4
:107370008EE1BFCF8536B9F4E0E0F0E083E095E040
:1073800080935700E89507B600FCFDCF9093570017
:10739000E89507B600FCFDCFE058FF4FE11520E768
:1073A000F20771F7A5CF823719F4E1E0F0E00EC0E3
:1073B000863419F4E0E0F0E009C08E3419F4E3E01B
:1073C000F0E004C0813539F4E2E0F0E089E0809338
:1073D000570084918ECF823631F489E5A4DE80E0B7
:1073E000A2DE80E886CF823419F0873609F0D1C05A
:1073F00010929D0110929C017FDE082F7DDED82F18
:107400007BDE182F8BEB810F823010F08FE371CF72
:107410002D2F30E0302B10926F00C73609F043C09B
:1074200081E180935700E895E90100E0BB24B39423
:10743000209709F4AAC0C090A301D090A401E090C5
:10744000A501F090A6011634B9F4E02FF0E0EC2984
:10745000FD29849168DE002369F082E0C80ED11C0A
:10746000E11CF11CC092A301D092A401E092A501FD
:10747000F092A6010B2515C0D701C601B695A795B8
:1074800097958795FFD44FDEE2E0CE0ED11CE11C2C
:10749000F11CC092A301D092A401E092A501F09248
:1074A000A6012197C5CF8090A3019090A401A09040
:1074B000A501B090A601163441F483E0F401809355
:1074C0005700E89507B600FCFDCFE901712C00E0FC
:1074D00066246394209709F44CC0163431F50023D8
:1074E00001F1C090A301D090A401E090A501F0901B
:1074F000A60102DE272D30E0382BF601090160924B
:107500005700E8951124F2E0CF0ED11CE11CF11CCC
:10751000C092A301D092A401E092A501F092A6012D
:1075200002C0EADD782E062522C0E6DD682F8091B4
:10753000A3019091A401A091A501B091A601B695D7
:10754000A79597958795A6D48091A3019091A401C2
:10755000A091A501B091A6010296A11DB11D809335
:10756000A3019093A401A093A501B093A601219734
:10757000B1CF163441F485E0F40180935700E895CB
:1075800007B600FCFDCF8DE0CEDD82E080936F007A
:1075900094C0833471F4C091A301D091A401ACDDF7
:1075A00090E021E0FE010C0120935700E8951124A2
:1075B0009FCE833601F5C090A301D090A401E09046
:1075C000A501F090A60198DDF601E16090E021E0D0
:1075D0000C0120935700E8951124F2E0CF0ED11C46
:1075E000E11CF11CC092A301D092A401E092A5017C
:1075F000F092A6017DCE8D3661F4E091A301F09169
:10760000A40185E080935700E89507B600FCFDCF04
:107610006FCE823551F4E091A301F091A401C591A0
:10762000D4918D2F80DD8C2F64CE843419F564DDE8
:10763000682F8091A3019091A401A091A501B09120
:10764000A601B695A7959795879524D48091A30117
:107650009091A401A091A501B091A6010296A11D4F
:10766000B11D8093A3019093A401A093A501B093B1
:10767000A6013ECE8436F1F4C090A301D090A401BF
:10768000E090A501F090A601D701C601B695A79597
:1076900097958795F7D347DD22E0C20ED11CE11CF8
:1076A000F11CC092A301D092A401E092A501F09236
:1076B000A60103C08B3109F0A9CE83E08093E900D5
:1076C0009091E8008091E8008E778093E80095FD26
:1076D00011C08091E80080FD04C08EB38111F9CF04
:1076E00015C08091E8008E778093E80003C08EB3C8
:1076F000882361F08091E80080FFF9CF84E08093D7
:10770000E9008091E8008B778093E800DF91CF91CA
:107710001F910F91FF90EF90DF90CF90BF90AF90AF
:107720009F908F907F906F900895CF9390910008D5
:107730001092000884B714BE0FB6F894A895209153
:107740006000286120936000109260000FBE40E846
:1077500020E00FB6F89440936100209361000FBEC3
:1077600021E025BF32E035BF3F9A209A559A4093D9
:1077700061001092610047985D9A289A10928900E2
:107780004AEF4093880030936F0033E030938100DC
:10779000E0E0F0E0459154914F3F5F4F11F02093AE
:1077A000A20181FF20C0209100019217E1F02093F7
:1077B0000008789480910101882339F080919A0122
:1077C00090919B0188379140C8F310920101F89481
:1077D0001092000881E0809301018091A20188232A
:1077E00071F0BFDC0CC080FF04C02091A201211108
:1077F000F8CF83FF04C0809100019813EECFD1D061
:10780000789410929D0110929C01CEEF809101011D
:10781000882301F13ADD1FD380919C0190919D0155
:10782000813A9F4010F0109201018091A701909140
:10783000A80101969093A8018093A701292F97FF93
:1078400002C02C2F291B220F281710F44798DECFD7
:10785000479ADCCF8091E00081608093E00081DC7A
:1078600080E090E0CF910895292F30E0223031055B
:1078700059F02330310569F021303105F9F482E106
:1078800090E02FE731E01EC08EE390E021E431E08C
:1078900019C0882349F0813061F0823079F48AE29E
:1078A00090E029E031E00EC084E090E02DE331E08B
:1078B00009C08EE190E02DE131E004C080E090E06D
:1078C00020E030E0FA013183208308958093E900BD
:1078D000EBEEF0E0808181608083EDEEF0E01082DD
:1078E0006093EC0040838091EE00881F8827881FFA
:1078F00008958091AB0187FF0FC08091E80082FD61
:1079000004C08EB38111F9CF10C08091E8008B774D
:107910000AC08EB3882349F08091E80080FFF9CF38
:107920008091E8008E778093E80008950F931F936D
:10793000CF93DF9341D048D0C8EDD0E088818F77D6
:10794000888388818068888388818F7D888319BC3B
:107950001EBA1092A90100EE10E0F80180818B7F21
:10796000808388818160888342E060E080E0AEDFD0
:10797000E1EEF0E080818E7F8083E2EEF0E08081B6
:1079800081608083808188608083F80180818E7F20
:107990008083888180618883DF91CF911F910F91CF
:1079A0000895E7EDF0E08081816080838AE482BF02
:1079B00081E08093AA01BACFE8EDF0E080818E7F6C
:1079C00080831092E20008951092DA001092E10094
:1079D00008951F920F920FB60F9211242F933F9389
:1079E0004F935F936F937F938F939F93AF93BF93C7
:1079F000EF93FF938091DA0080FF19C08091D80047
:107A000080FF15C08091DA008E7F8093DA0080912C
:107A1000D90019BC80FF09C082E089BD09B400FE0D
:107A2000FDCF81E08EBB16D202C01EBA13D2809168
:107A3000E10080FF17C08091E20080FF13C08091B9
:107A4000E2008E7F8093E2008091E200806180936B
:107A5000E2008091D80080628093D80019BC85E054
:107A60008EBBF8D18091E10084FF2BC08091E200B1
:107A700084FF27C019BC82E089BD09B400FEFDCF98
:107A80008091D8008F7D8093D8008091E1008F7E17
:107A90008093E1008091E2008F7E8093E2008091EC
:107AA000E20081608093E2008091A901811106C00B
:107AB0008091E30087FD02C081E001C084E08EBBBD
:107AC000C9D18091E10083FF21C08091E20083FF52
:107AD0001DC08091E100877F8093E10082E08EBB32
:107AE0001092A9018091E1008E7F8093E100809146
:107AF000E2008E7F8093E2008091E20080618093BB
:107B0000E20042E060E080E0E1DEA4D1FF91EF918D
:107B1000BF91AF919F918F917F916F915F914F91A5
:107B20003F912F910F900FBE0F901F9018952091AD
:107B3000B1013091B2012617370748F06115710580
:107B400039F42091E8002E772093E80001C0B901B4
:107B500040E061157105A1F12EB3222309F440C064
:107B6000253009F43FC02091E80023FD37C0209163
:107B7000E80022FD2DC02091E80020FFEACF4091CF
:107B8000F3002091F20030E0342BFC01CF016115AD
:107B9000710559F02830310540F481918093F1004E
:107BA000615071092F5F3F4FF1CF41E0283031051F
:107BB00009F040E02091E8002E772093E800C9CF3B
:107BC0004111CACF05C08EB3882351F0853051F0E2
:107BD0008091E80082FFF7CF80E0089581E008956A
:107BE00082E0089583E008956115710529F42091DC
:107BF000E8002B772093E800FC016115710531F155
:107C00008EB3882359F1853059F18091E80083FDC6
:107C100023C08091E80082FFF0CF2091F300809193
:107C2000F20090E0922B892B31F08091F10081934A
:107C30006150710991F78091E8008B778093E8009B
:107C4000DCCF8EB3882351F0853051F08091E8006D
:107C500080FFF7CF80E0089581E0089582E00895E5
:107C600083E008950F931F93CF93DF9300D0CDB798
:107C7000DEB7EBEAF1E088E08E0F9091F10091938E
:107C80008E13FBCFD4DA8091E80083FFCEC08091C1
:107C9000AB019091AC01492F50E04A30510508F0FA
:107CA000C4C0FA01EA5AF74CE7C0823809F0BDC0F7
:107CB0008091AF0187708093E9008091EB00109272
:107CC000E9009091E800977F9093E80085FB882772
:107CD00080F98093F1001092F10085C0282F2D7F4C
:107CE00009F0A3C0823009F0A0C08091AD018111DC
:107CF00027C08091AF01877009F497C08093E90095
:107D00002091EB0020FF1CC0933021F48091EB0008
:107D1000806214C09091EB0090619093EB0021E0A1
:107D200030E0A90102C0440F551F8A95E2F7409345
:107D3000EA001092EA008091EB0088608093EB00EB
:107D40001092E9008091E800877F50C081116DC0DA
:107D50001091AD011F770FB7F8948091E800877FED
:107D60008093E800C6DD8091E80080FFFCCF809121
:107D7000E3008078812B8093E30080688093E300A8
:107D8000111102C082E001C083E08EBB0FBF4DC065
:107D90008058823008F049C0AE014F5F5F4F60915C
:107DA000AF018091AD019091AE015EDDBC01892BE8
:107DB00009F43BC09091E800977F9093E800898197
:107DC0009A81B5DE8091E8008B778093E8002DC022
:107DD000803859F58091E800877F8093E800809192
:107DE000A9018093F1008091E8008E778093E800EC
:107DF00080DD1BC0811119C09091AD019230A8F4B3
:107E00008091E800877F8093E8009093A90171DD5D
:107E10008091A901811106C08091E30087FD02C015
:107E200081E001C084E08EBBF6D98091E80083FF39
:107E30000AC08091EB0080628093EB008091E800A3
:107E4000877F8093E8000F900F90DF91CF911F9173
:107E50000F9108950895CF938EB3882359F0C09160
:107E6000E900C7701092E9008091E80083FDFADE16
:107E7000C093E900CF910895EE0FFF1F0590F49194
:107E8000E02D0994F999FECF92BD81BDF89A99270A
:107E900080B50895262FF999FECF1FBA92BD81BDF6
:107EA00020BD0FB6F894FA9AF99A0FBE019608957C
:047EB000F894FFCF74
:107EB4007701000000000000082A03330044005248
:107EC400006100630065007200730000001E03502F
:107ED4000069006C006F0074002000200020002066
:107EE40000200020002000200020000000040309DE
:107EF4000409023E0002010080320904000001026C
:107F040002010005240010010424020405240600D3
:107F140001070582030800FF09040100020A0000AA
:107F24000007050402100001070583021000011276
:107F340001100102000008091258FA0100020100B0
:0A7F4400014341544552494E4100EB
:040000030000700089
:00000001FF
